:020000040800F2
:1000000010350020310200088D080008150800088E
:1000100089080008F9060008570B000800000000D6
:10002000000000000000000000000000990100082E
:10003000FD06000800000000DD010008AD09000811
:100040004B0200084B0200084B0200084B0200085C
:100050004B0200084B0200084B0200084B0200084C
:100060004B0200084B0200084B0200084B0200083C
:100070004B0200084B0200084B0200084B0200082C
:100080004B0200084B0200084B0200084B0200081C
:100090004B0200084B0200084B0200084B0200080C
:1000A0004B0200084B0200084B0200084B020008FC
:1000B0004B0200084B0200084B0200084B020008EC
:1000C0004B0200084B0200084B0200084B020008DC
:1000D0004B020008710A00084B0200084B0200089E
:1000E0004B0200084B0200084B02000800F002F827
:1000F00000F042F80AA090E8000C82448344AAF180
:100100000107DA4501D100F037F8AFF2090EBAE87D
:100110000F0013F0010F18BFFB1A43F0010318473B
:10012000A8280000C8280000103A24BF78C878C169
:10013000FAD8520724BF30C830C144BF04680C60ED
:10014000704700000023002400250026103A28BF35
:1001500078C1FBD8520728BF30C148BF0B60704739
:10016000642900F0F180732900F048820020704774
:100170001FB51FBD10B510BD00F08CFA1146FFF77A
:10018000F7FF00F0FBFC00F0AAFA03B4FFF7F2FF60
:1001900003BC00F0E2FC0000224B19680868B0E8DC
:1001A000F00F80F30988BFF36F8F4FF0000080F3EA
:1001B00011884EF00D0E70470000000006480068E0
:1001C000006880F3088862B661B6BFF34F8FBFF353
:1001D0006F8F00DF00BF00BF08ED00E0EFF3098084
:1001E000BFF36F8F0F4B1A6820E9F00F106008B54E
:1001F0004FF0500080F31188BFF34F8FBFF36F8F24
:1002000001F0B4FD4FF0000080F31188BDE8084014
:1002100019680868B0E8F00F80F30988BFF36F8FA2
:10022000704700BF20000020EFF3058070470000FA
:100230000948804709480047FEE7FEE7FEE7FEE77A
:10024000FEE7FEE7FEE7FEE7FEE7FEE704480549B6
:10025000054A064B70470000110A0008ED0000082F
:10026000102D00201035002010310020103100200A
:10027000704700000FB4044910B503AA029800F0BB
:10028000C1F910BC5DF814FB180000202DE9F04105
:100290000E460446002020622046E168884730B3BD
:1002A000252805D0D4E901219047206A401CF2E7B7
:1002B000E168204600278847050018D0A5F14100D5
:1002C000192802D820354FF40067324629462046C7
:1002D0002760FFF745FF40B1012804D0F61D26F046
:1002E00007060836D8E7361DD6E72846DAE7206A3B
:1002F000BDE8F08170B50C460546012A05D0287886
:10030000800600D5EA69002302E0012305E05B1CBA
:10031000934202D2E05C0028F9D1A869E618C01A1D
:10032000A861286A184428622846AFF3008004E0D8
:10033000D5E9012114F8010B9047B442F8D32846BF
:10034000AFF3008070BD00002DE9F04106460024A7
:1003500010687529314616A510D0AFF3008000282B
:1003600002DA404213A507E031688A0701D512A5D9
:1003700002E0490704D511A5012401E0AFF3008094
:1003800000210A2206F1240709E0B0FBF2FCB0FBD1
:10039000F2F302FB1C00303078541846491C002848
:1003A000F3D123462A463046BDE8F04100F0A2B81A
:1003B000000000002D0000002B00000020000000C5
:1003C000032A40F2308010F0030C00F0158011F881
:1003D000013BBCF1020F624498BF11F801CB00F859
:1003E000013B38BF11F8013BA2F1040298BF00F8AD
:1003F00001CB38BF00F8013B11F0030300F014817A
:10040000083AC0F0088051F8043B083A51F804CB90
:10041000A0E80810F5E7121D5CBF51F8043B40F856
:10042000043BAFF30080D20724BF11F8013B11F861
:1004300001CB48BF11F8012B24BF00F8013B00F8A5
:1004400001CB48BF00F8012B704702F0FF0343EADD
:10045000032242EA024200F002B84FF000020429EF
:10046000C0F0128010F0030C00F01B80CCF1040CE3
:10047000BCF1020F18BF00F8012BA8BF20F8022B17
:10048000A1EB0C0100F00DB85FEAC17C24BF00F8BD
:10049000012B00F8012B48BF00F8012B70474FF0EB
:1004A000000200B5134694469646203922BFA0E8C4
:1004B0000C50A0E80C50B1F12001BFF4F7AF0907D0
:1004C00028BFA0E80C5048BF0CC05DF804EB8900C1
:1004D00028BF40F8042B08BF704748BF20F8022B04
:1004E00011F0804F18BF00F8012B7047704770471C
:1004F000704770472DE9F0470D46994692460446ED
:1005000000F124080168880604D5E06921F0100193
:10051000216000E00120A84201DD471B00E0002728
:10052000A1697A1902EB0900081AA0612078C006B7
:1005300002D42046AFF30080002608E0D4E9012170
:100540001AF806009047206A401C761C20624E452F
:10055000F4DB2078C0060AD52046AFF3008006E021
:10056000D4E9012130209047206A401C2062381EC7
:10057000A7F10107F4DC07E0D4E9012118F8050030
:100580009047206A401C2062281EA5F10105F3DC7B
:100590002046AFF300802078000602D50220BDE897
:1005A000F0870120FBE7000001694A1C026108781E
:1005B000704700B58FB0CDE90131002105910549A3
:1005C0007944CDE9031011466846FFF75FFE0FB08E
:1005D00000BD0000E5FFFFFF10B5436913B1AFF3A5
:1005E000008001E0FFF786FE012010BD127800F1C7
:1005F00024010A7000224A700122EDE711684FF0D1
:10060000FF32E9E7074B70B50D467B44FFF7D1FF9A
:100610000446284600F03AF810B14FF0FF3070BDA4
:10062000204670BD5305000010B5203AC0F00B8085
:10063000B1E81850203AA0E81850B1E81850A0E8E6
:100640001850BFF4F5AF5FEA027C24BFB1E8185040
:10065000A0E8185044BF18C918C0BDE810405FEAB0
:10066000827C24BF51F8043B40F8043B08BF70472C
:10067000D20728BF31F8023B48BF11F8012B28BF31
:1006800020F8023B48BF00F8012B7047007B00F0C8
:1006900080007047754600F02BF8AE4605006946AD
:1006A000534620F00700854618B020B5FFF7CEFD71
:1006B000BDE820404FF000064FF000074FF0000863
:1006C0004FF0000B21F00701AC46ACE8C009ACE8E4
:1006D000C009ACE8C009ACE8C0098D46704710B548
:1006E0000446AFF300802046BDE81040FFF74DBD43
:1006F00000487047B02C002000BFFEE770472DE98E
:10070000F041024600250026002000230024002797
:1007100091F803C00CF00F0591F803C00CF0100C19
:10072000BCF1000F03D091F802C04CEA050591F826
:1007300000C0BCF1000F31D0146800202BE04FF056
:10074000010C0CFA00F3B1F800C00CEA03069E425B
:1007500020D183004FF00F0C0CFA03F7BC4305FACD
:1007600003FC4CEA040491F803C0BCF1280F06D145
:100770004FF0010C0CFA00FCC2F814C00AE091F82A
:1007800003C0BCF1480F05D14FF0010C0CFA00FC7E
:10079000C2F810C0401C0828D1D31460B1F800C0C2
:1007A000BCF1FF0F34DD546800202EE000F1080C8E
:1007B0004FF0010808FA0CF3B1F800C00CEA030688
:1007C0009E4221D183004FF00F0C0CFA03F7BC437B
:1007D00005FA03FC4CEA040491F803C0BCF1280FAD
:1007E00005D100F1080C08FA0CF8C2F8148091F851
:1007F00003C0BCF1480F07D100F1080C4FF001080D
:1008000008FA0CF8C2F81080401C0828CED35460B7
:10081000BDE8F08100BFFEE717E000200B4908604B
:100820000B49C1F884010B4908604FF4FA7001F0DC
:1008300087F9012005490860091D08600649C1F8CB
:10084000B4014FF4FA7001F07BF9E6E78001214230
:1008500000002142B40122420000224208B50121D9
:10086000142000F01FF84FF40050ADF800001020E5
:100870008DF8030003208DF8020069460148FFF758
:100880003EFF08BD0010014000BFFEE770470000BA
:1008900002490143024A1160704700000000FA0556
:1008A0000CED00E029B1064A92690243044B9A61BB
:1008B00004E0034A92698243014B9A617047000049
:1008C0000010024010B500F001F810BD0CB500207A
:1008D000019000903348006840F48030314908604E
:1008E00000BF3048006800F4003000900198401CC0
:1008F0000190009818B90198B0F5A06FF1D129487E
:10090000006800F4003010B10120009001E00020E8
:1009100000900098012843D12348006840F010005F
:10092000214908600846006820F003000860084676
:10093000006840F0020008601A48406819494860A1
:100940000846406848600846406840F48060486057
:100950000846406820F47C1048600846406840F42F
:10096000E81048600846006840F08070086000BFEA
:100970000C48006800F000700028F9D00948406871
:1009800020F00300074948600846406840F0020034
:10099000486000BF0348406800F00C000828F9D107
:1009A0000CBD0000001002400020024010B501F014
:1009B000EBFC012801D001F0CDFA10BD10B50022EA
:1009C0004FF0E0231A611A46126922F004021A61FC
:1009D000C31700EB5373C3F3CF030C4C2380C3172F
:1009E00000EB5373D9104FF47A7251434FF0E02269
:1009F000126942F002024FF0E0231A611A46516177
:100A0000126942F001021A6110BD000014000020BA
:100A100010B51348006840F001001149086008460D
:100A20004068104908400E494860084600680E4971
:100A300008400B4908600846006820F480200860E0
:100A40000846406820F4FE0048604FF41F008860AC
:100A5000FFF738FF4FF000600449086010BD000048
:100A6000001002400000FFF8FFFFF6FE08ED00E076
:100A700010B540F225511D4800F03EF810B31B4858
:100A800000F064F8C4B21A48008800F40040C8B905
:100A90001748008800F4804060B10A2C03D0002081
:100AA0001349088020E01248008840F400401049B3
:100AB000088019E00D2C06D10D48008840F48040D4
:100AC0000B49088010E00A480088C0F30D0009496E
:100AD0000C5407480088401C0549088008460088D7
:100AE000C72801DD0020088010BD0000003801404B
:100AF0001C0000209C00002070B50246002400234A
:100B00000025002040F66A16B14200D100BFC1F3B3
:100B1000421501F01F03012606FA03F3012D02D14D
:100B20009689334006E0022D02D1168A334001E057
:100B3000968A33400C12012606FA04F416883440D3
:100B400013B10CB1012000E0002070BD014688887F
:100B5000C0F30800704700BFFEE700BF7047000009
:100B600000BF054A128802F04002002AF9D0C2B242
:100B7000014B1B1D1A807047003801401CB54FF413
:100B80004070FFF785FE4820FFF718FFFFF766FE6D
:100B90000020022103468022CDE9001003A106486F
:100BA00001F0BEFB01F080F800BFFEE74C45445F5A
:100BB000466C617368000000190800082DE9F041D7
:100BC00005460E462948076800202949096881F82A
:100BD000590027480068001D00F020FE50B9244845
:100BE000006890F82C100120884022490968814350
:100BF00020480160681CD8B9D6B11F4948681C4913
:100C0000096888601A4982680968CA6018490968D1
:100C1000091D8268516016490968091D8160164ADC
:100C2000134909684A6111460968491C11601AE0B4
:100C30007C190F4800684460BC4207D20C48016828
:100C4000091D0E48006800F013FE0CE0084801681A
:100C5000091D0B48006800F00BFE0A48006884423A
:100C600001D208480460BDE8F08100003400002093
:100C700020000020380000207404002028000020FC
:100C8000240000205000002010B5044600F00AFEA9
:100C900031480068401C304908603048006840B95D
:100CA0002E4804600846006801280DD100F0FCF9C8
:100CB0000AE02B48006838B928480068C06AE16A31
:100CC000884201D82548046026480068401C254910
:100CD000086008460068606494F82C100120884081
:100CE00021490968084320490860E16A01EB810154
:100CF0001E4A02EB81014868A0608268E260211D03
:100D0000826851608160E16A01EB8101174A02EB60
:100D100081026261E16A01EB8101144A52F82110FB
:100D2000491CE26A02EB8202104B43F8221000F0E9
:100D3000FDFD0B48006868B108480068C06AE16AB8
:100D4000884207D24FF0805009490860BFF34F8FA7
:100D5000BFF36F8F10BD0000300000202000002086
:100D60003C0000204C00002038000020A40100209E
:100D700004ED00E010B500F095FD10480068D0B912
:100D80000F4800F065FD0F4800F062FD0C480E4969
:100D900008600C480D49086000221021052001F070
:100DA000F3F8064908600846006820B108A1034826
:100DB000006800F061FE00F0B9FD10BD6800002081
:100DC000880400209C0400206000002064000020B3
:100DD000546D72510000000010B516E000F062FD85
:100DE0000C48C068C468201D00F018FD0A4800685F
:100DF000401E0949086009480068401E074908600C
:100E000000F094FD204600F05FF8044800680028D8
:100E1000E4D110BD60040020300000202C00002030
:100E200070B504460D46206C70B1216CE068014439
:100E3000E160D4E90210884201D32168E1602846CC
:100E4000226CE168FFF7BCFA70BD2DE9F041044661
:100E50000F4615464FF00008A66B206C48B9206875
:100E600000282CD1A06801F08FFB80460020A060F4
:100E700025E07DB93946226C6068FFF7A1FA216C44
:100E8000606808446060D4E90101884217D3206893
:100E9000606014E03946226CE068FFF791FA216C3B
:100EA000E068411AE1602168E068884203D2216C61
:100EB000A068411AE160022D01D106B1761E701CB6
:100EC000A0634046BDE8F08110B50446206B00F0F9
:100ED00065FD204600F062FD10BD00000146084A95
:100EE000126812680AB9012200E000220A600A684A
:100EF00022B9034A1268D268106800E000207047E7
:100F00006000002030B54FF42053154800F007046E
:100F10002CB1C01D20F00700114C041B1B1B024606
:100F2000104C226000240F4D6C60D018083820F05F
:100F300007000D4C206000240B4D2D686C600A4D9D
:100F40002D682C601146441A4C60074C24680C60D4
:100F5000064D4C682C60064D4C682C6030BD00007E
:100F6000B0040020740000207C00002084000020D9
:100F70008000002000BFFFF72FFF0648006801280F
:100F8000F9D94FF0805004490860BFF34F8FBFF389
:100F90006F8FF0E7A401002004ED00E02DE9F0419F
:100FA00006460D4617469846069C0DB9246000E09B
:100FB0002760E66325640121204601F025F884F8C6
:100FC00050800020A064BDE8F08100002DE9F05FB2
:100FD00082460F4690469B460A9E0C9C4FEA88012B
:100FE000A522206BFFF731FAA8F10100216B01EB7C
:100FF000800929F0070909F0070008B9012000E07D
:10100000002028B940F25D321EA123A0FFF732F97B
:101010007FB1002507E0795D04F134004155785D2A
:1010200000B902E06D1C102DF5D300BF0021432054
:101030000155202E01D2012000E0002028B940F205
:10104000923210A114A0FFF715F9202E00D31F260D
:10105000E662E664201D00F008FC04F1180000F0D0
:1010600004FC2461C6F12000A06164625A46514626
:10107000484600F0C1FB20600B9808B10B98046053
:10108000BDE8F09F2E2E5C4672656572746F735CCE
:101090007461736B732E63004572726F723A202510
:1010A000732C2025640D0A0010B5002407E004EB22
:1010B00084010F4A02EB810000F0CAFB641C202C63
:1010C000F5D30C4800F0C4FB0B4800F0C1FB0B4803
:1010D00000F0BEFB0A4800F0BBFB0A4800F0B8FB7A
:1010E00004480949086004480849086010BD000028
:1010F000A401002024040020380400204C04002017
:101100006004002074040020240000202800002037
:1011100010B50146164800E0006803688B42FBD317
:101120000246436813448B4204D143684C6823440D
:10113000436001460A464B6813440468A34211D138
:101140000C4C03682468A34208D04B6804686468A8
:1011500023444B6003681B680B6005E0054B1B686C
:101160000B6001E003680B60884200D0016010BD95
:10117000740000207C0000202DE9F04104460D465B
:1011800016461F464FF0000865602461B5420CD832
:10119000F01BA169884202D34FF0010811E0211D24
:1011A0000948006800F064FB0BE0BE4204D2BD4277
:1011B00002D34FF0010804E0211D0448006800F04C
:1011C00057FB4046BDE8F08164000020600000202D
:1011D00070B5054600F066FBA86B08B9012400E075
:1011E000002400F0A3FB204670BD0000F1B500987C
:1011F000846C00262CB940F6E33223A127A0FFF728
:1012000039F8A06BE16B884201D2012000E0002098
:1012100028B940F6E4321CA120A0FFF72BF8A06B00
:10122000E16B88422DD294F9455000226946204650
:10123000FFF70BFE0646681C60B9606A08B901201A
:1012400000E00020E0B904F1240001F01DFAB8B17B
:10125000012615E000F0F6FA0746BD420FD27F2DB9
:1012600001D0012000E0002028B940F6044206A188
:101270000AA0FEF7FFFF681C40B284F8450000BFDB
:1012800000BF3046F8BD00002E2E5C4672656572C8
:10129000746F735C71756575652E63004572726F4E
:1012A000723A2025732C2025640D0A0070B505467E
:1012B0000E460E480068C068C468201D00F0AEFAF3
:1012C00094F8280000F0040028B132462946204650
:1012D00000F0F8F805E094F8280000F0FE0084F82B
:1012E00028002046216A884770BD00006000002069
:1012F00070B586B08AE0029800280CDA03AE2EB9E9
:1013000040F20B3247A14DA0FEF7B4FFD6E9002012
:10131000B168904700BF0298002877DB049C6069A1
:1013200008B9012000E0002010B9201D00F076FA75
:1013300001A800F0F3F8054602980A2864D2DFE815
:1013400000F06305072E365306082F3700BF00BF95
:1013500000BF94F8280040F0010084F828000398AA
:10136000A269811803462A462046FFF705FFA8B167
:1013700094F8280000F0040038B10398A26981189D
:101380002A46204600F09EF805E094F8280000F078
:10139000FE0084F828002046216A884735E000BF17
:1013A00094F8280000F0FE0084F828002DE000BF2B
:1013B00094F8280040F0010084F828000398A06108
:1013C000A06908B1012000E0002028B940F25E3297
:1013D00014A11AA0FEF74EFFA06941192B462A4618
:1013E0002046FFF7C9FE10E094F8280000F0020044
:1013F00018B9204600F0D2FA05E094F8280000F071
:10140000FE0084F8280000E000BF00BF002202A90F
:101410000E48006800F06EFE00287FF46CAF06B046
:1014200070BD00002E2E5C4672656572746F735C31
:1014300074696D6572732E63000000004572726FEF
:10144000723A2025732C2025640D0A0068000020C4
:10145000F8B505460C4600F081FC684600F05EF8E1
:101460000646009820BB44B9B54206D801F0AAF957
:1014700031462846FFF71AFF1CE03CB10E480068D1
:10148000006808B9012000E000200446A91B22469C
:101490000A48006800F02EFB01F094F950B94FF0B3
:1014A000805007490860BFF34F8FBFF36F8F01E093
:1014B00001F088F9F8BD00006400002068000020F9
:1014C00004ED00E070B504460D46164604E0A06940
:1014D00005442046216A8847A06941192B463246B7
:1014E0002046FFF749FE0028F1D170BD0948006889
:1014F000006808B9012000E0002020B14FF0FF3063
:101500000549086005E003480068C06800680249B2
:1015100008607047240000205000002070B5044689
:1015200000F042FF054607480068854204D200F0FB
:101530000BF80120206001E00020206001480560D8
:10154000284670BD7000002070B508E00D480068A6
:10155000C06804684FF0FF312046FFF7A7FE094836
:101560000068006808B9012000E000200028EDD0E4
:10157000044805680448006802490860024805609C
:1015800070BD000060000020640000200B4800686F
:10159000401C08B9012000E0002020B9D12208A198
:1015A00012A0FEF767FE00BF502080F31188BFF342
:1015B0004F8FBFF36F8F00BF00BFFEE7900000208A
:1015C0002E2E5C4672656572746F735C706F7274F8
:1015D00061626C655C525644535C41524D5F434DB1
:1015E000335C706F72742E63000000004572726F7E
:1015F000723A2025732C2025640D0A0008B500BF1F
:101600006846FFF76BFC044620460099FFF720FF71
:10161000FFF76EFEF4E770B5044600F043F994F965
:10162000455019E0A06C30B12046FFF7DFFD88B1CE
:1016300000F0CCFA0EE0606A08B9012000E000205A
:1016400038B904F1240001F01FF818B100F0BEFA17
:1016500000E003E0681E45B2002DE3DC00BFFF2080
:1016600084F8450000F062F900F01CF994F9445048
:1016700010E0206908B9012000E0002048B904F119
:10168000100001F001F808B100F0A0FA681E45B2A0
:1016900000E001E0002DECDC00BFFF2084F84400F6
:1016A00000F044F970BD00002DE9F04705464FF009
:1016B000000900F053FB3D48006808B9FFF722FC21
:1016C00075B105F00700C0F11008C8F1FF30A8425D
:1016D00001D2012000E0002008B9454400E00025C7
:1016E000012000EBE57000284DD0002D4BD0304894
:1016F0000068854247D82F4E3046046801E02646F0
:1017000024686068A84202D220680028F7D12748E0
:101710000068844237D0306800F1080920683060E2
:101720006068401B102813D9671907F0070008B933
:10173000012000E0002020B9DC221FA128A0FEF734
:1017400099FD6068401B786065603846FFF7E0FCF3
:10175000174960680968081A154908600846006852
:1017600023490968884203D211480068204908606B
:10177000606840F000406060002020601D48006804
:10178000401C1C49086001F01DF809F0070008B969
:10179000012000E0002028B94FF48E7206A110A0AD
:1017A000FEF768FD4846BDE8F08700007C00002099
:1017B00080000020740000202E2E5C467265657249
:1017C000746F735C706F727461626C655C4D656D93
:1017D0004D616E675C686561705F342E6300000068
:1017E0004572726F723A2025732C2025640D0A0011
:1017F0008400002088000020001F4FF080730360E9
:10180000001F21F001030360001F034B0360143825
:1018100002602038704700008D15000801460A69F3
:10182000D1E901309860D1E90103586050688842DD
:1018300001D188685060002008611068401E106067
:1018400010687047014800687047000030000020B1
:1018500000F1080141604FF0FF31816000F10801A3
:10186000C160016100210160704700210161704782
:1018700010B502460B685C1C0CB9106907E002F158
:10188000080000E04068446824689C42FAD9446833
:101890004C604C68A160886041600A611468641CF7
:1018A000146010BD10B500BF502080F31188BFF345
:1018B0004F8FBFF36F8F00BF0B480068401C0A4971
:1018C00008600846006801280DD108480068C0B2C9
:1018D00008B9012000E0002028B94FF4BB7204A130
:1018E0000EA0FEF7C7FC10BD9000002004ED00E044
:1018F0002E2E5C4672656572746F735C706F7274C5
:1019000061626C655C525644535C41524D5F434D7D
:10191000335C706F72742E63000000004572726F4A
:10192000723A2025732C2025640D0A0010B50B484F
:10193000006828B940F27D1209A114A0FEF79AFCB4
:1019400006480068401E054908600846006820B93E
:10195000002080F3118800BF00BF10BD9000002060
:101960002E2E5C4672656572746F735C706F727454
:1019700061626C655C525644535C41524D5F434D0D
:10198000335C706F72742E63000000004572726FDA
:10199000723A2025732C2025640D0A0070B5064686
:1019A0003546002E31D0083D2C466068C00F28B95E
:1019B00040F22F1215A11FA0FEF75CFC206808B9A9
:1019C000012000E0002028B94FF498720FA119A05F
:1019D000FEF750FC6068C00FB8B12068A8B9606815
:1019E00020F00040606000F0B9F9164960680968AD
:1019F0000844144908602046FFF78AFB1248006833
:101A0000401C1149086000F0DDFE70BD2E2E5C46C2
:101A100072656572746F735C706F727461626C650D
:101A20005C4D656D4D616E675C686561705F342EFD
:101A3000630000004572726F723A2025732C2025D6
:101A4000640D0A00800000208C00002000204FF070
:101A5000E0210861886107480068C0084FF47A7186
:101A6000B0FBF1F0401E4FF0E02148610320086117
:101A700070470000000000202DE9F04105460F46A8
:101A800000262DB940F6D82210A115A0FEF7F2FBD2
:101A9000BFB1002412E0164800EBC4004068A84221
:101AA00003D1134800EBC4060AE036B9104850F8D9
:101AB000340010B90E4800EBC406641C082CEAD3AD
:101AC00000BF0EB137607560BDE8F0812E2E5C4618
:101AD00072656572746F735C71756575652E6300F0
:101AE0004572726F723A2025732C2025640D0A000E
:101AF000640100202DE9F04105460E4617462C46AC
:101B0000FFF7D0FE94F94400401C10B9002084F87F
:101B1000440094F94500401C10B9002084F84500A9
:101B2000FFF704FFA06B28B93A46314604F12400C0
:101B300000F07CF82046FFF76EFDBDE8F081000064
:101B400070B504460025ACB10F48006808B9012003
:101B500000E0002028B940F21C520CA110A0FEF7B2
:101B600089FB00F0FBF800212046FFF727F800F082
:101B700029FE05463DB94FF080500D490860BFF37E
:101B80004F8FBFF36F8F70BD5C0000202E2E5C4620
:101B900072656572746F735C7461736B732E63002E
:101BA0004572726F723A2025732C2025640D0A004D
:101BB00004ED00E0034909680160034909684160D8
:101BC0007047000048000020340000200120014937
:101BD000086070474400002070B504460D462CB9DB
:101BE00040F60E4207A10CA0FEF744FB0E48016828
:101BF00018312046FFF73CFE01212846FEF7DEFFA4
:101C000070BD00002E2E5C4672656572746F735C49
:101C10007461736B732E63004572726F723A202584
:101C2000732C2025640D0A002000002070B50446A6
:101C30000E4615462CB940F6444211A115A0FEF7F8
:101C400019FB606817490968C86116498268096804
:101C50000A6214490968183182685160114909689B
:101C6000183181600F4909688C622168491C216024
:101C70000DB14FF0FF3629463046FEF79FFF70BD8D
:101C80002E2E5C4672656572746F735C7461736B43
:101C9000732E63004572726F723A2025732C2025D3
:101CA000640D0A00200000201CB51B4800210B46D3
:101CB0008022CDE9001019A11A4800F031FB04463A
:101CC000012C02D100F046FE0446012C15D100BFC4
:101CD000502080F31188BFF34F8FBFF36F8F00BF89
:101CE0004FF0FF30104908600120104908600020C3
:101CF0000F49086000F08EF80BE0601C08B101206D
:101D000000E0002028B940F612020AA10EA0FEF75A
:101D1000B1FA114800681CBD5400002049444C45EC
:101D200000000000750F0008500000203C0000205B
:101D3000340000202E2E5C4672656572746F735CF1
:101D40007461736B732E63004572726F723A202553
:101D5000732C2025640D0A005800002002480068FA
:101D6000401C0149086070475C00002010B51B480A
:101D7000006818B101201A4908602DE000201849B8
:101D8000086018480068B0FA80F0C0F11F0404EB46
:101D90008400154951F8200008B1012000E000201E
:101DA00028B940F6F63211A115A0FEF763FA04EB4C
:101DB00084010D4A02EB810041684968416000F1ED
:101DC000080142688A4202D141684968416041681D
:101DD000C9680F4A116000BF10BD00005C00002000
:101DE0004400002038000020A40100202E2E5C4674
:101DF00072656572746F735C7461736B732E6300CC
:101E00004572726F723A2025732C2025640D0A00EA
:101E1000200000201CB53B4C204600780190FF209C
:101E2000214608700846007800909DF8000000F0F8
:101E3000F0009DF80010884201D1012000E0002050
:101E400028B94FF4917230A13AA0FEF713FA9DF829
:101E5000000000F050003B49087007203A49086034
:101E600009E039480068401E374908609DF80000C5
:101E70004006000E00909DF8000000F080008028D1
:101E8000EFD031480068C0F10700042801D10120DB
:101E900000E0002028B94FF49B721BA125A0FEF79B
:101EA000E9F929480068C0F10700042801D10120A0
:101EB00000E0002028B940F23F1213A11DA0FEF758
:101EC000D9F92148006800021F49086008460088C7
:101ED00000F4E06008600B49019808701B48006836
:101EE00040F47000194908600846006840F07040EE
:101EF0000860FFF7ABFD002015490860FEF75EF9AA
:101F000000201CBD00E400E02E2E5C467265657268
:101F1000746F735C706F727461626C655C5256446E
:101F2000535C41524D5F434D335C706F72742E634E
:101F3000000000004572726F723A2025732C202534
:101F4000640D0A00940000209800002020ED00E0BD
:101F50009000002010B500BF502080F31188BFF31F
:101F60004F8FBFF36F8F00BF00F024FA18B14FF00E
:101F700080500449086000BF002080F3118800BF32
:101F800010BD000004ED00E02DE9F84305460E46C3
:101F900017460024E5B1601EB0FBF5F0B04217D340
:101FA00005FB06F010F1550F12D805FB06F909F1F3
:101FB0005400FFF779FB04468CB1A04608F15408A1
:101FC0003B464246314628460094FEF7E7FF06E0CE
:101FD0002CB94FF4F27203A107A0FEF74BF920468B
:101FE000BDE8F8832E2E5C4672656572746F735C73
:101FF00071756575652E63004572726F723A2025A2
:10200000732C2025640D0A002DE9F04105460E468B
:1020100001272C462CB94FF497722CA130A0FEF763
:1020200029F9002C42D0E06B00283FD04FF0FF315F
:10203000E06BB1FBF0F0216C884237D3FFF732FC44
:10204000D4E90F12206801FB0200A0600020A06309
:1020500020686060E06B401E226C216800FB02116A
:10206000E160FF2084F8440084F845009EB92069AF
:1020700008B9012000E00020A8B904F1100000F028
:1020800003FB80B14FF0805019490860BFF34F8FB8
:10209000BFF36F8F07E004F11000FFF7D9FB04F1E5
:1020A0002400FFF7D5FBFFF741FC00E000270FB14C
:1020B000012000E0002028B940F2631203A108A02B
:1020C000FEF7D8F83846BDE8F08100002E2E5C46B9
:1020D00072656572746F735C71756575652E6300EA
:1020E0004572726F723A2025732C2025640D0A0008
:1020F00004ED00E02DE9F74183B005460E464FF0B0
:1021000000082C462CB940F26B524CA150A0FEF7AF
:10211000B1F80EB9206C08B9012000E0002028B900
:1021200040F26F5245A14AA0FEF7A4F800F02CF946
:1021300008B9059808B9012000E0002028B940F24C
:1021400074523EA142A0FEF795F800BFFFF7AAFB2C
:10215000A76BF7B131462046FEF762FE781EA063FA
:10216000206908B9012000E0002060B904F11000E6
:1021700000F08AFA38B14FF0805039490860BFF357
:102180004F8FBFF36F8FFFF7D1FB012006B0BDE883
:10219000F081059818B9FFF7C9FB0020F6E7B8F100
:1021A000000F04D101A8FFF705FD4FF00108FFF76C
:1021B000BDFBFFF7D3FDFFF775FB94F94400401C0E
:1021C00010B9002084F8440094F94500401C10B96F
:1021D000002084F84500FFF7A9FB05A901A800F03D
:1021E00041F8F0B92046FEF7F3FFA0B104F1240056
:1021F0000599FFF7F1FC2046FFF70DFA00F0E2FA2F
:102200000028A3D14FF0805015490860BFF34F8FCD
:10221000BFF36F8F9AE72046FFF7FDF900F0D2FA7F
:1022200094E72046FFF7F7F900F0CCFA2046FEF7D6
:10223000CFFF00288AD00020A8E700002E2E5C46A1
:1022400072656572746F735C71756575652E630078
:102250004572726F723A2025732C2025640D0A0096
:1022600004ED00E070B506460C462EB940F6EF428C
:102270001FA124A0FDF7FEFF2CB94FF44F621CA153
:1022800020A0FDF7F7FFFFF70DFB224802687068FA
:10229000131A2148006890F8590030B100201E49F7
:1022A000096881F8590001251EE02068401C08B922
:1022B000002519E0194930680968884206D070681D
:1022C000904203D80125002020600DE0206898424C
:1022D00007D92068C01A20603046FFF76BFC002544
:1022E00002E0002020600125FFF720FB284670BD9A
:1022F0002E2E5C4672656572746F735C7461736BCD
:10230000732E63004572726F723A2025732C20255C
:10231000640D0A0034000020200000204800002046
:102320002DE9FF4F85B0804689461746DDE912AB9F
:10233000B800FFF7B9F9064676B15C20FFF7B4F9AB
:1023400004462CB15C212046FEF7A9F8266304E080
:102350003046FFF723FB00E000247CB10020CDE9EC
:1023600000ABCDE902403A4649464046089BFEF79D
:102370002DFE2046FEF788FC012501E04FF0FF35D9
:10238000284609B0BDE8F08F0549096809B9012060
:1023900005E00449096809B9022000E000207047FF
:1023A0003C0000205C0000200149086870470000E4
:1023B000340000202DE9F0414FF000085E4800682D
:1023C00000287DD15D480068451C5C480560EDB97A
:1023D0005B480068006808B9012000E0002028B9C7
:1023E00040F6B72257A15CA0FDF744FF54480768A8
:1023F0005D480068524908605B4807605B480068B8
:10240000401C5A490860FFF771F800BF584800683F
:10241000854277D300BF4A480068006808B90120A8
:1024200000E0002020B14FF0FF305149086068E023
:1024300043480068C068C4686668B54202D24C4828
:1024400006605EE06069D4E902128A60D4E9022184
:102450004A60211D42688A4201D1E1684160002240
:1024600062610168491E0160A06A98B1A06AD4E95E
:1024700007128A60D4E907214A6004F11801426812
:102480008A4201D1216A41600022A2620168491E8C
:10249000016000BF94F82C1001208840354909687C
:1024A000084334490860E16A01EB8101324A02EBDA
:1024B00081014868A0608268E260211D826800E0B6
:1024C00032E051608160E16A01EB81012A4A02EB4E
:1024D00081026261E16A01EB8101274A52F8211011
:1024E000491CE26A02EB8202234B43F82210234983
:1024F000E06A0968C96A88428DD94FF001088AE705
:1025000000E000BF1D480068C06A00EB80001A4967
:1025100051F82000012801D94FF00108184800683F
:1025200008B14FF0010804E016480068401C154946
:1025300008604046BDE8F0815C00002034000020C7
:10254000240000202E2E5C4672656572746F735CE9
:102550007461736B732E63004572726F723A20253B
:10256000732C2025640D0A0028000020480000205C
:102570005000002038000020A4010020200000208E
:10258000440000204000002070B505462C4600267F
:10259000002D5ED030480068844201D1012000E067
:1025A000002028B941F248022CA131A0FDF762FEBB
:1025B000206D28B941F2490228A12DA0FDF75AFE4D
:1025C000206D401E2065E16CE06A884241D0206D9C
:1025D00000283ED1201DFFF721F940B994F82C10B6
:1025E0000120884026490968814325480160E06C44
:1025F000E062E06AC0F12000A06194F82C10012094
:1026000088401F49096808431D490860E16A01EBD9
:1026100081011C4A02EB81014868A0608268E26087
:10262000211D826851608160E16A01EB8101154AD8
:1026300002EB81026261E16A01EB8101114A52F809
:102640002110491CE26A02EB82020E4B43F8221071
:102650000126304670BD0000200000202E2E5C4672
:1026600072656572746F735C7461736B732E630053
:102670004572726F723A2025732C2025640D0A0072
:1026800038000020A401002070B50646F068C46838
:102690002CB940F674423CA140A0FDF7EBFDA06AC6
:1026A000D4E907128A60D4E907214A6004F11801CD
:1026B00042688A4201D1216A41600022A262016817
:1026C000491E01603948006800283DD16069D4E99D
:1026D00002128A60D4E902214A60211D42688A42BE
:1026E00001D1E1684160002262610168491E016018
:1026F00094F82C10012088402D49096808432C4982
:102700000860E16A01EB81012A4A02EB8101486815
:10271000A0608268E260211D826851608160E16A88
:1027200001EB8101234A02EB81026261E16A01EB64
:102730008101204A52F82110491CE26A02EB820210
:102740001C4B43F8221010E01B494868E061826886
:10275000226204F11801826851608160164AA26207
:1027600011460968491C116000BF1449E06A0968F4
:10277000C96A884204D9012501201149086000E096
:102780000025284670BD00002E2E5C4672656572DD
:10279000746F735C7461736B732E63004572726F38
:1027A000723A2025732C2025640D0A005C0000205D
:1027B00038000020A40100204C040020200000204C
:1027C0004400002070B5002400265048006828B955
:1027D00040F685024EA153A0FDF74CFDFFF762F8CD
:1027E0004A480068401E49490860084600680028B9
:1027F0007ED15048006800287AD05BE04E48C0681F
:10280000C468A06AD4E907128A60D4E907214A6043
:1028100004F1180142688A4201D1216A4160002214
:10282000A2620168491E01606069D4E902128A60EF
:10283000D4E902214A60211D42688A4201D1E1683F
:102840004160002262610168491E016094F82C1009
:102850000120884039490968084338490860E16A1D
:1028600001EB8101364A02EB81014868A060826871
:10287000E260211D826851608160E16A01EB8101A3
:102880002F4A02EB81026261E16A01EB81012C4A6D
:1028900052F82110491CE26A02EB8202284B43F8ED
:1028A00022102849E06A0968C96A884202D30120D7
:1028B000254908602048006808B9012000E0002090
:1028C00000289BD00CB1FEF711FE2048056865B1C9
:1028D00000BFFFF76FFD10B101201B4908606D1E9E
:1028E000002DF6D10020194908601748006800E063
:1028F00008E038B10126300715490860BFF34F8F53
:10290000BFF36F8FFFF712F8304670BD5C000020F8
:102910002E2E5C4672656572746F735C7461736BA6
:10292000732E63004572726F723A2025732C202536
:10293000640D0A00300000204C0400203800002004
:10294000A4010020200000204400002040000020BE
:1029500004ED00E01CB50024FEF70CFA0B480068FB
:1029600058B10B481F2100234FF48072CDE90010AD
:1029700008A10A48FFF7D4FC04462CB940F219120A
:1029800007A10DA0FDF776FC20461CBD68000020C5
:102990006C000020546D722053766300FD15000812
:1029A0002E2E5C4672656572746F735C74696D651A
:1029B00072732E63000000004572726F723A202518
:1029C000732C2025640D0A00E8290008000000206F
:1029D0009C00000028010008842A00089C000020B8
:1029E000743400004401000800A24A040000000002
:1029F00000000000010203040607080900000000AF
:102A000000000000000000000000000000000000C6
:102A100000000000000000000000000000000000B6
:102A200000000000000000000000000000000000A6
:102A30000000000000000000000000000000000096
:102A40001F00000000000000000000000000000067
:102A50000000000000000000000000000000000076
:102A60000000000000000000000000000000000066
:102A70000000000000000000AAAAAAAA00000000AE
:042A80000000000052
:04000005080000ED02
:00000001FF
