:020000040800F2
:100000002035002031020008270800081F080008DA
:1000100023080008F9060008BB0E000800000000D5
:10002000000000000000000000000000990100082E
:10003000FD06000800000000DD010008A50C000816
:100040004B0200084B0200084B0200084B0200085C
:100050004B0200084B0200084B0200084B0200084C
:100060004B0200084B0200084B0200084B0200083C
:100070004B0200084B0200084B0200084B0200082C
:100080004B0200084B0200084B0200084B0200081C
:100090004B0200084B0200084B0200084B0200080C
:1000A0004B0200084B0200084B0200084B020008FC
:1000B0004B0200084B0200084B0200084B020008EC
:1000C0004B0200084B0200084B0200084B020008DC
:1000D0004B020008D50D00084B0200084B02000837
:1000E0004B0200084B0200084B02000800F002F827
:1000F00000F042F80AA090E8000C82448344AAF180
:100100000107DA4501D100F037F8AFF2090EBAE87D
:100110000F0013F0010F18BFFB1A43F0010318473B
:100120003433000054330000103A24BF78C878C13B
:10013000FAD8520724BF30C830C144BF04680C60ED
:10014000704700000023002400250026103A28BF35
:1001500078C1FBD8520728BF30C148BF0B60704739
:10016000642900F0F180732900F048820020704774
:100170001FB51FBD10B510BD00F08CFA1146FFF77A
:10018000F7FF00F0C5FE00F0AAFA03B4FFF7F2FF94
:1001900003BC00F094FE0000224B19680868B0E828
:1001A000F00F80F30988BFF36F8F4FF0000080F3EA
:1001B00011884EF00D0E70470000000006480068E0
:1001C000006880F3088862B661B6BFF34F8FBFF353
:1001D0006F8F00DF00BF00BF08ED00E0EFF3098084
:1001E000BFF36F8F0F4B1A6820E9F00F106008B54E
:1001F0004FF0500080F31188BFF34F8FBFF36F8F24
:1002000002F002F84FF0000080F31188BDE80840CA
:1002100019680868B0E8F00F80F30988BFF36F8FA2
:10022000704700BF30000020EFF3058070470000EA
:100230000948804709480047FEE7FEE7FEE7FEE77A
:10024000FEE7FEE7FEE7FEE7FEE7FEE704480549B6
:10025000054A064B70470000090D0008ED00000834
:10026000202D0020203500202031002020310020CA
:10027000704700000FB4044910B503AA029800F0BB
:10028000C1F910BC5DF814FB280000202DE9F041F5
:100290000E460446002020622046E168884730B3BD
:1002A000252805D0D4E901219047206A401CF2E7B7
:1002B000E168204600278847050018D0A5F14100D5
:1002C000192802D820354FF40067324629462046C7
:1002D0002760FFF745FF40B1012804D0F61D26F046
:1002E00007060836D8E7361DD6E72846DAE7206A3B
:1002F000BDE8F08170B50C460546012A05D0287886
:10030000800600D5EA69002302E0012305E05B1CBA
:10031000934202D2E05C0028F9D1A869E618C01A1D
:10032000A861286A184428622846AFF3008004E0D8
:10033000D5E9012114F8010B9047B442F8D32846BF
:10034000AFF3008070BD00002DE9F04106460024A7
:1003500010687529314616A510D0AFF3008000282B
:1003600002DA404213A507E031688A0701D512A5D9
:1003700002E0490704D511A5012401E0AFF3008094
:1003800000210A2206F1240709E0B0FBF2FCB0FBD1
:10039000F2F302FB1C00303078541846491C002848
:1003A000F3D123462A463046BDE8F04100F0A2B81A
:1003B000000000002D0000002B00000020000000C5
:1003C000032A40F2308010F0030C00F0158011F881
:1003D000013BBCF1020F624498BF11F801CB00F859
:1003E000013B38BF11F8013BA2F1040298BF00F8AD
:1003F00001CB38BF00F8013B11F0030300F014817A
:10040000083AC0F0088051F8043B083A51F804CB90
:10041000A0E80810F5E7121D5CBF51F8043B40F856
:10042000043BAFF30080D20724BF11F8013B11F861
:1004300001CB48BF11F8012B24BF00F8013B00F8A5
:1004400001CB48BF00F8012B704702F0FF0343EADD
:10045000032242EA024200F002B84FF000020429EF
:10046000C0F0128010F0030C00F01B80CCF1040CE3
:10047000BCF1020F18BF00F8012BA8BF20F8022B17
:10048000A1EB0C0100F00DB85FEAC17C24BF00F8BD
:10049000012B00F8012B48BF00F8012B70474FF0EB
:1004A000000200B5134694469646203922BFA0E8C4
:1004B0000C50A0E80C50B1F12001BFF4F7AF0907D0
:1004C00028BFA0E80C5048BF0CC05DF804EB8900C1
:1004D00028BF40F8042B08BF704748BF20F8022B04
:1004E00011F0804F18BF00F8012B7047704770471C
:1004F000704770472DE9F0470D46994692460446ED
:1005000000F124080168880604D5E06921F0100193
:10051000216000E00120A84201DD471B00E0002728
:10052000A1697A1902EB0900081AA0612078C006B7
:1005300002D42046AFF30080002608E0D4E9012170
:100540001AF806009047206A401C761C20624E452F
:10055000F4DB2078C0060AD52046AFF3008006E021
:10056000D4E9012130209047206A401C2062381EC7
:10057000A7F10107F4DC07E0D4E9012118F8050030
:100580009047206A401C2062281EA5F10105F3DC7B
:100590002046AFF300802078000602D50220BDE897
:1005A000F0870120FBE7000001694A1C026108781E
:1005B000704700B58FB0CDE90131002105910549A3
:1005C0007944CDE9031011466846FFF75FFE0FB08E
:1005D00000BD0000E5FFFFFF10B5436913B1AFF3A5
:1005E000008001E0FFF786FE012010BD127800F1C7
:1005F00024010A7000224A700122EDE711684FF0D1
:10060000FF32E9E7074B70B50D467B44FFF7D1FF9A
:100610000446284600F03AF810B14FF0FF3070BDA4
:10062000204670BDB708000010B5203AC0F00B801E
:10063000B1E81850203AA0E81850B1E81850A0E8E6
:100640001850BFF4F5AF5FEA027C24BFB1E8185040
:10065000A0E8185044BF18C918C0BDE810405FEAB0
:10066000827C24BF51F8043B40F8043B08BF70472C
:10067000D20728BF31F8023B48BF11F8012B28BF31
:1006800020F8023B48BF00F8012B7047007B00F0C8
:1006900080007047754600F02BF8AE4605006946AD
:1006A000534620F00700854618B020B5FFF7CEFD71
:1006B000BDE820404FF000064FF000074FF0000863
:1006C0004FF0000B21F00701AC46ACE8C009ACE8E4
:1006D000C009ACE8C009ACE8C0098D46704710B548
:1006E0000446AFF300802046BDE81040FFF74DBD43
:1006F00000487047C02C002000BFFEE770472DE97E
:10070000F041024600250026002000230024002797
:1007100091F803C00CF00F0591F803C00CF0100C19
:10072000BCF1000F03D091F802C04CEA050591F826
:1007300000C0BCF1000F31D0146800202BE04FF056
:10074000010C0CFA00F3B1F800C00CEA03069E425B
:1007500020D183004FF00F0C0CFA03F7BC4305FACD
:1007600003FC4CEA040491F803C0BCF1280F06D145
:100770004FF0010C0CFA00FCC2F814C00AE091F82A
:1007800003C0BCF1480F05D14FF0010C0CFA00FC7E
:10079000C2F810C0401C0828D1D31460B1F800C0C2
:1007A000BCF1FF0F34DD546800202EE000F1080C8E
:1007B0004FF0010808FA0CF3B1F800C00CEA030688
:1007C0009E4221D183004FF00F0C0CFA03F7BC437B
:1007D00005FA03FC4CEA040491F803C0BCF1280FAD
:1007E00005D100F1080C08FA0CF8C2F8148091F851
:1007F00003C0BCF1480F07D100F1080C4FF001080D
:1008000008FA0CF8C2F81080401C0828CED35460B7
:10081000BDE8F0810AB1016100E04161704700BFAD
:10082000FEE700BFFEE7704702490143024A11603C
:10083000704700000000FA050CED00E070B50024E0
:100840000EE00021204600F0E6F8002504E000203C
:1008500000F050F9681CC5B2802DF8DB601CC4B2F2
:10086000082CEEDB70BD000008B50121082000F067
:1008700051F914208DF8030003208DF802004FF485
:100880008070ADF8000069460A48FFF738FF4FF462
:100890000070ADF8000069460648FFF730FF0122FE
:1008A00011020448FFF7B6FF012251020148FFF789
:1008B000B1FF08BD000C014070B50546002415E0ED
:1008C0008020204100EA05024FF400710E48FFF736
:1008D000A1FF012211020C48FFF79CFF00224FF4F8
:1008E00080710948FFF796FF601CC4B2082CE7DB53
:1008F000012211020448FFF78DFF00224FF480719E
:100900000148FFF787FF70BD000C014010B50122C0
:1009100051020A48FFF77EFF012211020748FFF744
:1009200079FF00224FF400710448FFF773FF0022A3
:100930004FF480710148FFF76DFF10BD000C0140BE
:1009400010B500224FF400710648FFF763FF012243
:1009500011020448FFF75EFF012251020148FFF730
:1009600059FF10BD000C014070B5002406E00025C1
:1009700000E06D1CB5F57A7FFBD3641CB4F57A7F7B
:10098000F5D3FFF771FFAE2000F0A4F8D52000F0FA
:10099000A1F8802000F09EF8A82000F09BF83F20EE
:1009A00000F098F8D32000F095F8002000F092F8BD
:1009B000402000F08FF8A12000F08CF8C82000F053
:1009C00089F8DA2000F086F8122000F083F8812000
:1009D00000F080F8CF2000F07DF8D92000F07AF800
:1009E000F12000F077F8DB2000F074F8302000F000
:1009F00071F8A42000F06EF8A62000F06BF88D20AE
:100A000000F068F8142000F065F8AF2000F062F8FC
:100A1000FFF714FF70BD70B505460C4645F0B000F9
:100A200000F058F8102141EA141000F053F804F0D7
:100A30000F0000F04FF870BD2DE9F04105460E465D
:100A40001746721ED206110E6A1E5206100EFFF7CE
:100A5000E2FF002409E0A7F12001134A02EB011193
:100A6000085D00F047F8601CC4B2082CF3DB721E6E
:100A7000D206110E6A1E012303EB4202D0B2FFF729
:100A8000CAFF00240BE0A7F12001074A02EB011284
:100A900004F10801505C00F02DF8601CC4B2082C71
:100AA000F1DBBDE8F0810000642E00082DE9F04183
:100AB00007460E461546002407E02A5D3019C1B2EC
:100AC0003846FFF7B9FF601CC4B2285D0028F4D196
:100AD000BDE8F08110B50446FFF718FF7820FFF756
:100AE000EBFE0020FFF7E8FE2046FFF7E5FEFFF7EC
:100AF00027FF10BD10B50446FFF708FF7820FFF769
:100B0000DBFE4020FFF7D8FE2046FFF7D5FEFFF7BB
:100B100017FF10BD29B1064A92690243044B9A613E
:100B200004E0034A92698243014B9A6170470000D6
:100B30000010024010B500F001F810BD0CB5002007
:100B4000019000903348006840F4803031490860DB
:100B500000BF3048006800F4003000900198401C4D
:100B60000190009818B90198B0F5A06FF1D129480B
:100B7000006800F4003010B10120009001E0002076
:100B800000900098012843D12348006840F01000ED
:100B9000214908600846006820F003000860084604
:100BA000006840F0020008601A484068194948602F
:100BB0000846406848600846406840F480604860E5
:100BC0000846406820F47C1048600846406840F4BD
:100BD000E81048600846006840F08070086000BF78
:100BE0000C48006800F000700028F9D009484068FF
:100BF00020F00300074948600846406840F00200C2
:100C0000486000BF0348406800F00C000828F9D194
:100C10000CBD000000100240002002401CB525E081
:100C200001F004F81248012100234022CDE9001010
:100C300010A1124801F0C2FD1148012100234022F9
:100C4000CDE900100FA1114801F0B8FD10480121B5
:100C500000234022CDE900100EA1104801F0AEFDA6
:100C60000F48006801F06AF901F024F8D8E70000A5
:100C7000180000205461736B31000000690D0008FA
:100C80001C0000205461736B320000008D0D0008C1
:100C9000200000205461736B33000000B10D000888
:100CA0001400002010B501F0BDFD012801D001F0B5
:100CB0009FFB10BD10B500224FF0E0231A611A46C9
:100CC000126922F004021A61C31700EB5373C3F3D5
:100CD000CF030C4C2380C31700EB5373D9104FF490
:100CE0007A7251434FF0E022126942F002024FF053
:100CF000E0231A611A465161126942F001021A6139
:100D000010BD00002400002010B51348006840F01A
:100D100001001149086008464068104908400E4922
:100D20004860084600680E4908400B4908600846BC
:100D3000006820F4802008600846406820F4FE0027
:100D400048604FF41F008860FFF7F4FE4FF000602A
:100D50000449086010BD0000001002400000FFF8C8
:100D6000FFFFF6FE08ED00E00AE0FFF767FD05A2D1
:100D700001210846FFF79AFE4FF4487001F0A4F8ED
:100D8000F3E700005461736B310000000AE0FFF7E5
:100D900055FD05A201210220FFF788FE4FF448709F
:100DA00001F092F8F3E700005461736B3200000029
:100DB0000AE0FFF743FD05A201210420FFF776FEBC
:100DC0004FF4487001F080F8F3E700005461736B52
:100DD0003300000010B540F225511D4800F03EF8E8
:100DE00010B31B4800F064F8C4B21A48008800F43D
:100DF0000040C8B91748008800F4804060B10A2C50
:100E000003D000201349088020E01248008840F4F5
:100E100000401049088019E00D2C06D10D480088CB
:100E200040F480400B49088010E00A480088C0F375
:100E30000D0009490C5407480088401C05490880EA
:100E400008460088C72801DD0020088010BD00008A
:100E5000003801402C000020AC00002070B5024694
:100E6000002400230025002040F66A16B14200D17C
:100E700000BFC1F3421501F01F03012606FA03F378
:100E8000012D02D19689334006E0022D02D1168A47
:100E9000334001E0968A33400C12012606FA04F42E
:100EA0001688344013B10CB1012000E0002070BD61
:100EB00001468888C0F30800704700BFFEE700BF06
:100EC0007047000000BF054A128802F04002002A65
:100ED000F9D0C2B2014B1B1D1A8070470038014087
:100EE0001CB50648012100234022CDE9001004A1D1
:100EF000064801F063FC01F025F91CBD1400002038
:100F000053746172745F5461736B00001D0C0008B0
:100F100010B54FF44070FFF787FC4820FFF7CAFE7A
:100F2000FFF722FDFFF7DCFF002010BD2DE9F041A7
:100F300005460E462948076800202949096881F8B6
:100F4000590027480068001D00F020FE50B92448D1
:100F5000006890F82C1001208840224909688143DC
:100F600020480160681CD8B9D6B11F4948681C499F
:100F7000096888601A4982680968CA60184909685E
:100F8000091D8268516016490968091D8160164A69
:100F9000134909684A6111460968491C11601AE041
:100FA0007C190F4800684460BC4207D20C480168B5
:100FB000091D0E48006800F013FE0CE008480168A7
:100FC000091D0B48006800F00BFE0A4800688442C7
:100FD00001D208480460BDE8F08100004400002010
:100FE0003000002048000020840400203800002049
:100FF000340000206000002010B5044600F016FE0A
:1010000031480068401C304908603048006840B9E9
:101010002E4804600846006801280DD100F0FCF954
:101020000AE02B48006838B928480068C06AE16ABD
:10103000884201D82548046026480068401C25499C
:10104000086008460068606494F82C10012088400D
:1010500021490968084320490860E16A01EB8101E0
:101060001E4A02EB81014868A0608268E260211D8F
:10107000826851608160E16A01EB8101174A02EBED
:1010800081026261E16A01EB8101144A52F8211088
:10109000491CE26A02EB8202104B43F8221000F076
:1010A00009FE0B48006868B108480068C06AE16A38
:1010B000884207D24FF0805009490860BFF34F8F34
:1010C000BFF36F8F10BD00004000002030000020F3
:1010D0004C0000205C00002048000020B4010020EB
:1010E00004ED00E010B500F0A1FD10480068D0B993
:1010F0000F4800F065FD0F4800F062FD0C480E49F6
:1011000008600C480D49086000221021052001F0FC
:1011100089F9064908600846006820B108A103481B
:10112000006800F06DFE00F0C5FD10BD78000020E5
:1011300098040020AC0400207000002074000020FF
:10114000546D72510000000010B516E000F06EFD05
:101150000C48C068C468201D00F018FD0A480068EB
:10116000401E0949086009480068401E0749086098
:1011700000F0A0FD204600F05FF804480068002859
:10118000E4D110BD70040020400000203C0000208D
:1011900070B504460D46206C70B1216CE0680144C6
:1011A000E160D4E90210884201D32168E160284659
:1011B000226CE168FFF704F970BD2DE9F0410446A7
:1011C0000F4615464FF00008A66B206C48B9206802
:1011D00000282CD1A06801F025FC80460020A060EA
:1011E00025E07DB93946226C6068FFF7E9F8216C8B
:1011F000606808446060D4E90101884217D3206820
:10120000606014E03946226CE068FFF7D9F8216C81
:10121000E068411AE1602168E068884203D2216CED
:10122000A068411AE160022D01D106B1761E701C42
:10123000A0634046BDE8F08110B50446206B00F085
:1012400071FD204600F06EFD10BD00000146084A09
:10125000126812680AB9012200E000220A600A68D6
:1012600022B9034A1268D268106800E00020704773
:101270007000002030B54FF42053154800F00704EB
:101280002CB1C01D20F00700114C041B1B1B024693
:10129000104C226000240F4D6C60D018083820F0EC
:1012A00007000D4C206000240B4D2D686C600A4D2A
:1012B0002D682C601146441A4C60074C24680C6061
:1012C000064D4C682C60064D4C682C6030BD00000B
:1012D000C0040020840000208C0000209400002026
:1012E0009000002000BFFFF72FFF0648006801288C
:1012F000F9D94FF0805004490860BFF34F8FBFF316
:101300006F8FF0E7B401002004ED00E02DE9F0411B
:1013100006460D4617469846069C0DB9246000E027
:101320002760E66325640121204601F0BBF884F8BC
:1013300050800020A064BDE8F08100002DE9F05F3E
:1013400082460F4690469B460A9E0C9C4FEA8801B7
:10135000A522206BFFF779F8A8F10100216B01EBC2
:10136000800929F0070909F0070008B9012000E009
:10137000002028B940F25D321EA123A0FEF77AFFBB
:101380007FB1002507E0795D04F134004155785DB7
:1013900000B902E06D1C102DF5D300BF00214320E1
:1013A0000155202E01D2012000E0002028B940F292
:1013B000923210A114A0FEF75DFF202E00D31F264D
:1013C000E662E664201D00F008FC04F1180000F05D
:1013D00004FC2461C6F12000A06164625A465146B3
:1013E000484600F0C1FB20600B9808B10B980460E0
:1013F000BDE8F09F2E2E5C4672656572746F735C5B
:101400007461736B732E63004572726F723A20259C
:10141000732C2025640D0A0010B5002407E004EBAE
:1014200084010F4A02EB810000F0CAFB641C202CEF
:10143000F5D30C4800F0C4FB0B4800F0C1FB0B488F
:1014400000F0BEFB0A4800F0BBFB0A4800F0B8FB06
:1014500004480949086004480849086010BD0000B4
:10146000B401002034040020480400205C04002063
:101470007004002084040020340000203800002084
:1014800010B50146164800E0006803688B42FBD3A4
:101490000246436813448B4204D143684C6823449A
:1014A000436001460A464B6813440468A34211D1C5
:1014B0000C4C03682468A34208D04B680468646835
:1014C00023444B6003681B680B6005E0054B1B68F9
:1014D0000B6001E003680B60884200D0016010BD22
:1014E000840000208C0000202DE9F04104460D46C8
:1014F00016461F464FF0000865602461B5420CD8BF
:10150000F01BA169884202D34FF0010811E0211DB0
:101510000948006800F064FB0BE0BE4204D2BD4203
:1015200002D34FF0010804E0211D0448006800F0D8
:1015300057FB4046BDE8F081740000207000002099
:1015400070B5054600F072FBA86B08B9012400E0F5
:10155000002400F0AFFB204670BD0000F1B50098FC
:10156000846C00262CB940F6E33223A127A0FEF7B5
:1015700081FEA06BE16B884201D2012000E00020D7
:1015800028B940F6E4321CA120A0FEF773FEA06B40
:10159000E16B88422DD294F94550002269462046DD
:1015A000FFF70BFE0646681C60B9606A08B90120A7
:1015B00000E00020E0B904F1240001F0B3FAB8B172
:1015C000012615E000F0F6FA0746BD420FD27F2D46
:1015D00001D0012000E0002028B940F6044206A115
:1015E0000AA0FEF747FE681C40B284F8450000BF21
:1015F00000BF3046F8BD00002E2E5C467265657255
:10160000746F735C71756575652E63004572726FDA
:10161000723A2025732C2025640D0A0070B505460A
:101620000E460E480068C068C468201D00F0AEFA7F
:1016300094F8280000F0040028B1324629462046DC
:1016400000F0F8F805E094F8280000F0FE0084F8B7
:1016500028002046216A884770BD000070000020E5
:1016600070B586B08AE0029800280CDA03AE2EB975
:1016700040F20B3247A14DA0FEF7FCFDD6E9002059
:10168000B168904700BF0298002877DB049C60692E
:1016900008B9012000E0002010B9201D00F076FA02
:1016A00001A800F0F3F8054602980A2864D2DFE8A2
:1016B00000F06305072E365306082F3700BF00BF22
:1016C00000BF94F8280040F0010084F82800039837
:1016D000A269811803462A462046FFF705FFA8B1F4
:1016E00094F8280000F0040038B10398A26981182A
:1016F0002A46204600F09EF805E094F8280000F005
:10170000FE0084F828002046216A884735E000BFA3
:1017100094F8280000F0FE0084F828002DE000BFB7
:1017200094F8280040F0010084F828000398A06194
:10173000A06908B1012000E0002028B940F25E3223
:1017400014A11AA0FEF796FDA06941192B462A465E
:101750002046FFF7C9FE10E094F8280000F00200D0
:1017600018B9204600F0DEFA05E094F8280000F0F1
:10177000FE0084F8280000E000BF00BF002202A99C
:101780000E48006800F004FF00287FF46CAF06B03C
:1017900070BD00002E2E5C4672656572746F735CBE
:1017A00074696D6572732E63000000004572726F7C
:1017B000723A2025732C2025640D0A007800002041
:1017C000F8B505460C4600F017FD684600F05EF8D7
:1017D0000646009820BB44B9B54206D801F040FA4D
:1017E00031462846FFF71AFF1CE03CB10E4800685E
:1017F000006808B9012000E000200446A91B224629
:101800000A48006800F03AFB01F02AFA50B94FF09C
:10181000805007490860BFF34F8FBFF36F8F01E01F
:1018200001F01EFAF8BD00007400002078000020CE
:1018300004ED00E070B504460D46164604E0A069CC
:1018400005442046216A8847A06941192B46324643
:101850002046FFF749FE0028F1D170BD0948006815
:10186000006808B9012000E0002020B14FF0FF30EF
:101870000549086005E003480068C068006802493F
:1018800008607047340000206000002070B50446F6
:1018900000F0D8FF054607480068854204D200F0F2
:1018A0000BF80120206001E0002020600148056065
:1018B000284670BD8000002070B508E00D48006823
:1018C000C06804684FF0FF312046FFF7A7FE0948C3
:1018D0000068006808B9012000E000200028EDD071
:1018E0000448056804480068024908600248056029
:1018F00070BD000070000020740000200B480068DC
:10190000401C08B9012000E0002020B9D12208A124
:1019100012A0FEF7AFFC00BF502080F31188BFF388
:101920004F8FBFF36F8F00BF00BFFEE7A000002006
:101930002E2E5C4672656572746F735C706F727484
:1019400061626C655C525644535C41524D5F434D3D
:10195000335C706F72742E63000000004572726F0A
:10196000723A2025732C2025640D0A0008B500BFAB
:101970006846FFF76BFC044620460099FFF720FFFE
:10198000FFF76EFEF4E770B5044600F04FF994F9E6
:10199000455019E0A06C30B12046FFF7DFFD88B15B
:1019A00000F062FB0EE0606A08B9012000E0002050
:1019B00038B904F1240001F0B5F818B100F054FB77
:1019C00000E003E0681E45B2002DE3DC00BFFF200D
:1019D00084F8450000F06EF900F028F994F94450BD
:1019E00010E0206908B9012000E0002048B904F1A6
:1019F000100001F097F808B100F036FB681E45B200
:101A000000E001E0002DECDC00BFFF2084F8440082
:101A100000F050F970BD00002DE9F04705464FF089
:101A2000000900F0E9FB3D48006808B9FFF722FC17
:101A300075B105F00700C0F11008C8F1FF30A842E9
:101A400001D2012000E0002008B9454400E0002553
:101A5000012000EBE57000284DD0002D4BD0304820
:101A60000068854247D82F4E3046046801E026467C
:101A700024686068A84202D220680028F7D127486D
:101A80000068844237D0306800F10809206830606F
:101A90006068401B102813D9671907F0070008B9C0
:101AA000012000E0002020B9DC221FA128A0FEF7C1
:101AB000E1FB6068401B786065603846FFF7E0FC3A
:101AC000174960680968081A1549086008460068DF
:101AD00023490968884203D21148006820490860F8
:101AE000606840F000406060002020601D48006891
:101AF000401C1C49086001F0B3F809F0070008B960
:101B0000012000E0002028B94FF48E7206A110A039
:101B1000FEF7B0FB4846BDE8F08700008C000020CF
:101B200090000020840000202E2E5C4672656572B5
:101B3000746F735C706F727461626C655C4D656D1F
:101B40004D616E675C686561705F342E63000000F4
:101B50004572726F723A2025732C2025640D0A009D
:101B60009400002098000020001F4FF08073036055
:101B7000001F21F001030360001F034B03601438B2
:101B80000260203870470000FD18000801460A690D
:101B9000D1E901309860D1E901035860506888426A
:101BA00001D188685060002008611068401E1060F4
:101BB000106870470148006870470000400000202E
:101BC00000F1080141604FF0FF31816000F1080130
:101BD000C16001610021016070470021016170470F
:101BE00010B502460B685C1C0CB9106907E002F1E5
:101BF000080000E04068446824689C42FAD94468C0
:101C00004C604C68A160886041600A611468641C83
:101C1000146010BD42684A6093688B609368596095
:101C20009160086103685B1C0360704710B500BFDA
:101C3000502080F31188BFF34F8FBFF36F8F00BF29
:101C40000B480068401C0A490860084600680128E3
:101C50000DD108480068C0B208B9012000E000209A
:101C600028B94FF4BB7204A10EA0FEF703FB10BD10
:101C7000A000002004ED00E02E2E5C467265657227
:101C8000746F735C706F727461626C655C52564401
:101C9000535C41524D5F434D335C706F72742E63E1
:101CA000000000004572726F723A2025732C2025C7
:101CB000640D0A0010B50B48006828B940F27D1287
:101CC00009A114A0FEF7D6FA06480068401E05498F
:101CD00008600846006820B9002080F3118800BF22
:101CE00000BF10BDA00000202E2E5C4672656572FC
:101CF000746F735C706F727461626C655C52564491
:101D0000535C41524D5F434D335C706F72742E6370
:101D1000000000004572726F723A2025732C202556
:101D2000640D0A0070B506463546002E31D0083DD8
:101D30002C466068C00F28B940F22F1215A11FA0D1
:101D4000FEF798FA206808B9012000E0002028B9C1
:101D50004FF498720FA119A0FEF78CFA6068C00FBB
:101D6000B8B12068A8B9606820F00040606000F059
:101D700043FA164960680968084414490860204617
:101D8000FFF77EFB12480068401C1149086000F014
:101D900067FF70BD2E2E5C4672656572746F735C52
:101DA000706F727461626C655C4D656D4D616E67DC
:101DB0005C686561705F342E630000004572726F6D
:101DC000723A2025732C2025640D0A009000002013
:101DD0009C00002000204FF0E02108618861074846
:101DE0000068C0084FF47A71B0FBF1F0401E4FF06C
:101DF000E0214861032008617047000000000020D6
:101E00002DE9F04105460F4600262DB940F6D822AF
:101E100010A115A0FEF72EFABFB1002412E016485B
:101E200000EBC4004068A84203D1134800EBC4068D
:101E30000AE036B9104850F8340010B90E4800EBEB
:101E4000C406641C082CEAD300BF0EB1376075606D
:101E5000BDE8F0812E2E5C4672656572746F735C0E
:101E600071756575652E63004572726F723A202533
:101E7000732C2025640D0A00740100202DE9F04127
:101E800005460E4617462C46FFF7D0FE94F944004F
:101E9000401C10B9002084F8440094F94500401C0F
:101EA00010B9002084F84500FFF704FFA06B28B9A3
:101EB0003A46314604F1240000F006F92046FFF7C7
:101EC00062FDBDE8F081000070B504460025ACB1AC
:101ED0000F48006808B9012000E0002028B940F24E
:101EE0001C520CA110A0FEF7C5F900F085F90021E5
:101EF0002046FFF71BF800F0B3FE05463DB94FF052
:101F000080500D490860BFF34F8FBFF36F8F70BDD6
:101F10006C0000202E2E5C4672656572746F735CD7
:101F20007461736B732E63004572726F723A202571
:101F3000732C2025640D0A0004ED00E070B5054601
:101F4000FFF774FE15B92F48006800E028460446E4
:101F5000201DFFF71BFE78B9E06A00EB80002A49DC
:101F600051F8200040B994F82C10012088402749EE
:101F70000968814325480160A06A18B104F118007E
:101F8000FFF704FE22480068401C214908601D48F4
:101F90000068844209D1211D1E48FFF73BFE1E4800
:101FA0000068401C1C49086006E01C480068401E90
:101FB0001A490860FFF752FCFFF77CFE11480068E1
:101FC000844202D02046FFF737F915480068C0B1B7
:101FD0000C480068844214D11248006808B90120F6
:101FE00000E0002028B940F2AF420FA113A0FEF795
:101FF00041F94FF0805015490860BFF34F8FBFF390
:102000006F8F70BD30000020B40100204800002018
:102010005C000020700400203C00002040000020F4
:102020004C0000206C0000202E2E5C46726565720C
:10203000746F735C7461736B732E63004572726F9F
:10204000723A2025732C2025640D0A0004ED00E06F
:10205000034909680160034909684160704700004D
:10206000580000204400002001200149086070470A
:102070005400002070B504460D462CB940F60E42BF
:1020800007A10CA0FEF7F6F80E48016818312046AB
:10209000FFF7A6FD01212846FEF748FF70BD0000AE
:1020A0002E2E5C4672656572746F735C7461736B1F
:1020B000732E63004572726F723A2025732C2025AF
:1020C000640D0A003000002070B504460E46154627
:1020D0002CB940F6444211A115A0FEF7CBF8606878
:1020E00017490968C8611649826809680A62144973
:1020F0000968183182685160114909681831816096
:102100000F4909688C622168491C21600DB14FF0AC
:10211000FF3629463046FEF709FF70BD2E2E5C467D
:1021200072656572746F735C7461736B732E630098
:102130004572726F723A2025732C2025640D0A00B7
:10214000300000201CB51B4800210B468022CDE941
:10215000001019A11A4800F031FB0446012C02D1ED
:1021600000F046FE0446012C15D100BF502080F33C
:102170001188BFF34F8FBFF36F8F00BF4FF0FF3059
:102180001049086001201049086000200F490860CC
:1021900000F08EF80BE0601C08B1012000E0002088
:1021A00028B940F612020AA10EA0FEF763F8114802
:1021B00000681CBD6400002049444C45000000003C
:1021C000E5120008600000204C00002044000020C0
:1021D0002E2E5C4672656572746F735C7461736BEE
:1021E000732E63004572726F723A2025732C20257E
:1021F000640D0A006800002002480068401C014984
:10220000086070476C00002010B51B48006818B1CA
:1022100001201A4908602DE000201849086018487C
:102220000068B0FA80F0C0F11F0404EB8400154987
:1022300051F8200008B1012000E0002028B940F644
:10224000F63211A115A0FEF715F804EB84010D4A32
:1022500002EB810041684968416000F10801426871
:102260008A4202D14168496841604168C9680F4AA1
:10227000116000BF10BD00006C0000205400002061
:1022800048000020B40100202E2E5C467265657265
:10229000746F735C7461736B732E63004572726F3D
:1022A000723A2025732C2025640D0A00300000208E
:1022B0001CB53B4C204600780190FF202146087059
:1022C0000846007800909DF8000000F0F0009DF8AE
:1022D0000010884201D1012000E0002028B94FF40D
:1022E000917230A13AA0FDF7C5FF9DF8000000F003
:1022F00050003B49087007203A49086009E0394816
:102300000068401E374908609DF800004006000E36
:1023100000909DF8000000F080008028EFD0314848
:102320000068C0F10700042801D1012000E000206E
:1023300028B94FF49B721BA125A0FDF79BFF2948EC
:102340000068C0F10700042801D1012000E000204E
:1023500028B940F23F1213A11DA0FDF78BFF2148C1
:10236000006800021F4908600846008800F4E06029
:1023700008600B49019808701B48006840F4700021
:10238000194908600846006840F070400860FFF78F
:1023900021FD002015490860FDF710FF00201CBD3D
:1023A00000E400E02E2E5C4672656572746F735C0B
:1023B000706F727461626C655C525644535C41523A
:1023C0004D5F434D335C706F72742E6300000000EC
:1023D0004572726F723A2025732C2025640D0A0015
:1023E000A4000020A800002020ED00E0A0000020B4
:1023F00010B500BF502080F31188BFF34F8FBFF39B
:102400006F8F00BF00F024FA18B14FF080500449DC
:10241000086000BF002080F3118800BF10BD0000DD
:1024200004ED00E02DE9F84305460E46174600246A
:10243000E5B1601EB0FBF5F0B04217D305FB06F026
:1024400010F1550F12D805FB06F909F15400FFF7FA
:10245000E3FA04468CB1A04608F154083B464246D4
:10246000314628460094FEF751FF06E02CB94FF4A0
:10247000F27203A107A0FDF7FDFE2046BDE8F88338
:102480002E2E5C4672656572746F735C717565752E
:10249000652E63004572726F723A2025732C2025D9
:1024A000640D0A002DE9F04105460E4601272C4631
:1024B0002CB94FF497722CA130A0FDF7DBFE002C55
:1024C00042D0E06B00283FD04FF0FF31E06BB1FB12
:1024D000F0F0216C884237D3FFF7A8FBD4E90F1244
:1024E000206801FB0200A0600020A06320686060FB
:1024F000E06B401E226C216800FB0211E160FF20AE
:1025000084F8440084F845009EB9206908B9012088
:1025100000E00020A8B904F1100000F003FB80B136
:102520004FF0805019490860BFF34F8FBFF36F8F92
:1025300007E004F11000FFF743FB04F12400FFF76C
:102540003FFBFFF7B7FB00E000270FB1012000E0E1
:10255000002028B940F2631203A108A0FDF78AFE0B
:102560003846BDE8F08100002E2E5C46726565722B
:10257000746F735C71756575652E63004572726F5B
:10258000723A2025732C2025640D0A0004ED00E02A
:102590002DE9F74183B005460E464FF000082C4662
:1025A0002CB940F26B524CA150A0FDF763FE0EB95E
:1025B000206C08B9012000E0002028B940F26F52D9
:1025C00045A14AA0FDF756FE00F02CF908B9059880
:1025D00008B9012000E0002028B940F274523EA161
:1025E00042A0FDF747FE00BFFFF720FBA76BF7B146
:1025F00031462046FEF7CCFD781EA063206908B95D
:10260000012000E0002060B904F1100000F08AFA17
:1026100038B14FF0805039490860BFF34F8FBFF396
:102620006F8FFFF747FB012006B0BDE8F0810598EA
:1026300018B9FFF73FFB0020F6E7B8F1000F04D10F
:1026400001A8FFF705FD4FF00108FFF733FBFFF787
:10265000D3FDFFF7EBFA94F94400401C10B90020B9
:1026600084F8440094F94500401C10B9002084F817
:102670004500FFF71FFB05A901A800F041F8F0B9DC
:102680002046FEF75DFFA0B104F124000599FFF795
:10269000F1FC2046FFF777F900F0E2FA0028A3D119
:1026A0004FF0805015490860BFF34F8FBFF36F8F15
:1026B0009AE72046FFF767F900F0D2FA94E7204640
:1026C000FFF761F900F0CCFA2046FEF739FF002849
:1026D0008AD00020A8E700002E2E5C467265657245
:1026E000746F735C71756575652E63004572726FEA
:1026F000723A2025732C2025640D0A0004ED00E0B9
:1027000070B506460C462EB940F6EF421FA124A034
:10271000FDF7B0FD2CB94FF44F621CA120A0FDF7CE
:10272000A9FDFFF783FA224802687068131A21484E
:10273000006890F8590030B100201E49096881F8FE
:10274000590001251EE02068401C08B9002519E049
:10275000194930680968884206D07068904203D8E9
:102760000125002020600DE02068984207D92068EC
:10277000C01A20603046FFF76BFC002502E0002005
:1027800020600125FFF796FA284670BD2E2E5C4684
:1027900072656572746F735C7461736B732E630022
:1027A0004572726F723A2025732C2025640D0A0041
:1027B0004400002030000020580000202DE9FF4F89
:1027C00085B0804689461746DDE912ABB800FFF7B1
:1027D00023F9064676B15C20FFF71EF904462CB1BA
:1027E0005C212046FDF75BFE266304E03046FFF7E0
:1027F00099FA00E000247CB10020CDE900ABCDE9DE
:1028000002403A4649464046089BFEF797FD20465F
:10281000FEF7F2FB012501E04FF0FF35284609B035
:10282000BDE8F08F0549096809B9012005E00449B0
:10283000096809B9022000E0002070474C00002020
:102840006C00002001490868704700004400002027
:102850002DE9F0414FF000085E48006800287DD166
:102860005D480068451C5C480560EDB95B48006840
:10287000006808B9012000E0002028B940F6B7221E
:1028800057A15CA0FDF7F6FC544807685D48006856
:10289000524908605B4807605B480068401C5A4921
:1028A0000860FEF7DBFF00BF58480068854277D319
:1028B00000BF4A480068006808B9012000E0002015
:1028C00020B14FF0FF305149086068E0434800688C
:1028D000C068C4686668B54202D24C4806605EE0D3
:1028E0006069D4E902128A60D4E902214A60211D9C
:1028F00042688A4201D1E168416000226261016858
:10290000491E0160A06A98B1A06AD4E907128A60E2
:10291000D4E907214A6004F1180142688A4201D1D2
:10292000216A41600022A2620168491E016000BF65
:1029300094F82C100120884035490968084334492F
:102940000860E16A01EB8101324A02EB81014868CB
:10295000A0608268E260211D826800E032E0516080
:102960008160E16A01EB81012A4A02EB8102626126
:10297000E16A01EB8101274A52F82110491CE26A01
:1029800002EB8202234B43F822102349E06A0968D4
:10299000C96A88428DD94FF001088AE700E000BF7C
:1029A0001D480068C06A00EB80001A4951F82000F9
:1029B000012801D94FF001081848006808B14FF00C
:1029C000010804E016480068401C154908604046AC
:1029D000BDE8F0816C00002044000020340000209D
:1029E0002E2E5C4672656572746F735C7461736BD6
:1029F000732E63004572726F723A2025732C202566
:102A0000640D0A00380000205800002060000020FB
:102A100048000020B40100203000002054000020B5
:102A20005000002070B505462C460026002D5ED0D3
:102A300030480068844201D1012000E0002028B91C
:102A400041F248022CA131A0FDF714FC206D28B9F9
:102A500041F2490228A12DA0FDF70CFC206D401E7B
:102A60002065E16CE06A884241D0206D00283ED1AB
:102A7000201DFFF78BF840B994F82C1001208840F6
:102A800026490968814325480160E06CE062E06AFC
:102A9000C0F12000A06194F82C10012088401F494B
:102AA000096808431D490860E16A01EB81011C4A7D
:102AB00002EB81014868A0608268E260211D8268A3
:102AC00051608160E16A01EB8101154A02EB8102EC
:102AD0006261E16A01EB8101114A52F82110491C3F
:102AE000E26A02EB82020E4B43F8221001263046C6
:102AF00070BD0000300000202E2E5C4672656572AD
:102B0000746F735C7461736B732E63004572726FC4
:102B1000723A2025732C2025640D0A0048000020FD
:102B2000B401002070B50646F068C4682CB940F6C0
:102B300074423CA140A0FDF79DFBA06AD4E90712B6
:102B40008A60D4E907214A6004F1180142688A4288
:102B500001D1216A41600022A2620168491E016020
:102B60003948006800283DD16069D4E902128A60C2
:102B7000D4E902214A60211D42688A4201D1E168FC
:102B80004160002262610168491E016094F82C10C6
:102B9000012088402D49096808432C490860E16AF2
:102BA00001EB81012A4A02EB81014868A06082683A
:102BB000E260211D826851608160E16A01EB810160
:102BC000234A02EB81026261E16A01EB8101204A42
:102BD00052F82110491CE26A02EB82021C4B43F8B6
:102BE000221010E01B494868E0618268226204F10B
:102BF0001801826851608160164AA2621146096814
:102C0000491C116000BF1449E06A0968C96A88421A
:102C100004D9012501201149086000E0002528465B
:102C200070BD00002E2E5C4672656572746F735C19
:102C30007461736B732E63004572726F723A202554
:102C4000732C2025640D0A006C0000204800002031
:102C5000B40100205C04002030000020540000205B
:102C600070B5002400265048006828B940F6850257
:102C70004EA153A0FDF7FEFAFEF7D8FF4A480068C0
:102C8000401E494908600846006800287ED1504827
:102C9000006800287AD05BE04E48C068C468A06A2B
:102CA000D4E907128A60D4E907214A6004F11801C7
:102CB00042688A4201D1216A41600022A262016811
:102CC000491E01606069D4E902128A60D4E90221D8
:102CD0004A60211D42688A4201D1E16841600022B8
:102CE00062610168491E016094F82C10012088403F
:102CF00039490968084338490860E16A01EB8101F4
:102D0000364A02EB81014868A0608268E260211DBA
:102D1000826851608160E16A01EB81012F4A02EB18
:102D200081026261E16A01EB81012C4A52F82110B3
:102D3000491CE26A02EB8202284B43F82210284920
:102D4000E06A0968C96A884202D3012025490860FF
:102D50002048006808B9012000E0002000289BD02E
:102D60000CB1FEF77BFD2048056865B100BFFFF799
:102D70006FFD10B101201B4908606D1E002DF6D1BA
:102D80000020194908601748006800E008E038B1E1
:102D90000126300715490860BFF34F8FBFF36F8FCF
:102DA000FEF788FF304670BD6C0000202E2E5C467A
:102DB00072656572746F735C7461736B732E6300FC
:102DC0004572726F723A2025732C2025640D0A001B
:102DD000400000205C04002048000020B4010020D6
:102DE00030000020540000205000002004ED00E0DE
:102DF0001CB50024FEF776F90B48006858B10B4863
:102E00001F2100234FF48072CDE9001008A10A4869
:102E1000FFF7D4FC04462CB940F2191207A10DA00B
:102E2000FDF728FA20461CBD780000207C00002019
:102E3000546D7220537663006D1900082E2E5C4687
:102E400072656572746F735C74696D6572732E63FD
:102E5000000000004572726F723A2025732C202505
:102E6000640D0A00000000000000000000000000E7
:102E700000000000000000F8000000000000003327
:102E80003000000000100C06100C060000000000CE
:102E90000000000040C07840C0784000043F0404B7
:102EA0003F040400007088FC08300000001820FF78
:102EB000211E0000F008F000E018000000211C03B3
:102EC0001E211E0000F00888700000001E2123242F
:102ED0001927211010160E0000000000000000004D
:102EE00000000000000000E01804020000000007DD
:102EF0001820400000020418E000000000402018E4
:102F000007000000404080F0804040000202010FB6
:102F100001020200000000F0000000000101011F9A
:102F200001010100000000000000000080B07000FE
:102F3000000000000000000000000000000101018E
:102F4000010101010000000000000000003030001D
:102F500000000000000000008060180400601806F7
:102F60000100000000E010080810E000000F102031
:102F700020100F00001010F8000000000020203F7B
:102F80002020000000700808088870000030282405
:102F900022213000003008888848300000182020A6
:102FA00020110E000000C02010F8000000070424CB
:102FB000243F240000F80888880808000019212010
:102FC00020110E0000E0108888180000000F11206A
:102FD00020110E0000380808C83808000000003F23
:102FE000000000000070880808887000001C222182
:102FF00021221C0000E010080810E000000031222F
:1030000022110F00000000C0C000000000000030CE
:103010003000000000000080000000000000806020
:1030200000000000000080402010080000010204A1
:103030000810200040404040404040000404040488
:103040000404040000081020408000000020100844
:1030500004020100007048080808F0000000003079
:1030600036010000C030C828E810E0000718272407
:1030700023140B000000C038E0000000203C2302B5
:103080000227382008F8888888700000203F202018
:1030900020110E00C030080808083800071820204A
:1030A0002010080008F808080810E000203F202041
:1030B00020100F0008F88888E8081000203F202022
:1030C0002320180008F88888E8081000203F200016
:1030D00003000000C030080808380000071820204E
:1030E000221E020008F808000008F808203F21010D
:1030F00001213F20000808F8080800000020203FB8
:103100002020000000000808F8080800C080808027
:103110007F00000008F888C028180800203F200120
:103120002638200008F8080000000000203F20207A
:103130002020300008F8F800F8F80800203F003F91
:10314000003F200008F830C00008F808203F2000A9
:1031500007183F00E01008080810E0000F102020BA
:1031600020100F0008F808080808F000203F21018F
:1031700001010000E01008080810E0000F182424E6
:1031800038504F0008F8888888887000203F200059
:10319000030C30200070880808083800003820210F
:1031A00021221C00180808F8080818000000203F19
:1031B0002000000008F808000008F808001F202080
:1031C00020201F000878880000C838080000073851
:1031D0000E010000F80800F80008F800033C0700A2
:1031E000073C0300081868808068180820302C030A
:1031F000032C30200838C800C83808000000203FE1
:103200002000000010080808C838080020382621CF
:1032100020201800000000FE020202000000007FD3
:1032200040404000000C30C00000000000000001E1
:103230000638C00000020202FE00000000404040CC
:103240007F000000000004020202040000000000F1
:10325000000000000000000000000000808080806E
:103260008080808000020204000000000000000056
:1032700000000000000080808080000000192422EF
:1032800022223F2008F8008080000000003F11202B
:1032900020110E000000008080800000000E112030
:1032A00020201100000000808088F800000E11200E
:1032B00020103F200000808080800000001F22221C
:1032C00022221300008080F0888888180020203F88
:1032D000202000000000808080808000006B94949B
:1032E0009493600008F8008080800000203F210057
:1032F00000203F2000809898000000000020203F20
:1033000020200000000000809898000000C080800D
:10331000807F000008F8000080808000203F2402A9
:103320002D302000000808F8000000000020203F99
:10333000202000008080808080808000203F20004E
:103340003F20003F8080008080800000203F2100DF
:1033500000203F200000808080800000001F20208F
:1033600020201F00808000808000000080FFA120BE
:1033700020110E000000008080808000000E1120CF
:1033800020A0FF80808080008080800020203F215E
:103390002000010000008080808080000033242411
:1033A00024241900008080E0808000000000001FBD
:1033B000202000008080000000808000001F20206E
:1033C00020103F20808080000080808000010E302F
:1033D0000806010080800080008080800F300C0390
:1033E0000C300F0000808000808080000020312E93
:1033F0000E312000808080000080808080818E706F
:103400001806010000808080808080000021302C20
:103410002221300000000000807C02020000000039
:10342000003F404000000000FF00000000000000DE
:10343000FF0000000002027C800000000040403FCE
:103440000000000000060101020204040000000068
:10345000000000007434000800000020AC000000F0
:103460002801000820350008AC000020743400005A
:103470004401000800A24A0400000000000000000F
:103480000102030406070809000000000000000014
:10349000000000000000000000000000000000002C
:1034A000000000000000000000000000000000001C
:1034B000000000000000000000000000000000000C
:1034C00000000000000000000000000000000000FC
:1034D0000000000000000000000000001F000000CD
:1034E00000000000000000000000000000000000DC
:1034F00000000000000000000000000000000000CC
:1035000000000000000000000000000000000000BB
:1035100000000000AAAAAAAA000000000000000003
:04000005080000ED02
:00000001FF
